:10000000A02F00202920000025200000252000002E
:1000100000000000000000000000000000000000E0
:10002000000000000000000000000000252000008B
:100030000000000000000000252000002520000036
:10004000252000002520000025200000B904000024
:10005000310300002520000025200000252000009D
:1000600025200000F5080000050900001509000022
:100070002509000035090000450900002520000081
:100080002520000025200000051D0000151D000092
:10009000251D0000000000000000000025200000D9
:1000A00025200000000000002520000000000000C6
:1000B0000000000010B5064C2378002B07D1054B3B
:1000C000002B02D0044800E000BF0123237010BDC4
:1000D000700000200000000000610000084B10B517
:1000E000002B03D00749084800E000BF0748036819
:1000F000002B00D110BD064B002BFBD09847F9E731
:100100000000000074000020006100000061000099
:100110000000000070B50020084B98470500084C0F
:10012000FA218900A047074B186007492800A0471B
:10013000064B18600522064B1A6070BDFD190000C1
:100140004D5500000000002040420F000400002038
:1001500010E000E030B5084B1C68084A00258021FB
:100160004902013807D3002CFBD054609560136816
:100170000B42FCD0F5E730BD0400002010E000E0A9
:100180000C4B1B68002B06D1EFF31083002B07D01C
:100190000022094B1A70074A136801331360704735
:1001A00072B6BFF35F8F0022044B1A700132024B0C
:1001B0001A70F0E78C00002090000020080000205A
:1001C000084B1A68013A1A601B68002B09D1064BCC
:1001D0001B78002B05D00122044B1A70BFF35F8FF0
:1001E00062B670478C0000209000002008000020BC
:1001F000F0B5C64600B582B001AC01266670002796
:10020000A770267021001320274DA847274B98463A
:1002100080231B03424693612770667021001C20D7
:10022000A8476670A770267021005220A8472100B9
:100230003E20A84721003F20A84721002F20A847A3
:1002400021001420A8478022D202194B9A61194B31
:100250008022D2059A61802212069A6180221202BF
:100260009A6180235B0342469361277021005320EB
:10027000A847114A116A80239B030B43136204228F
:100280000E4B1A806B469E70DF7005236A46137012
:100290005670694609200A4CA04769460C20A047C1
:1002A00002B004BC9046F0BD95040000004400413B
:1002B00000450041804400410004004000540042D9
:1002C0000D1C00001723002A01D0180070478B0076
:1002D000064A9B58002B03D0834205D01D23F4E728
:1002E000890088500023F0E70023EEE7180E002075
:1002F0001723002901D01800704700221F2800D8BA
:10030000024A01238340D3600023F4E70018004031
:100310001723002901D01800704700221F2800D899
:10032000024A0123834093600023F4E70018004051
:1003300070B50022104B1A70002310491F25104E73
:100340000D4C0AE00D4908E023780133DBB223703D
:100350000F2B10D800211F2BF4D9280018400122A0
:10036000824008691042EFD00A619B009B59002B24
:10037000EAD09847E8E770BD140E0020001800404E
:10038000180E0020044A137802210B43137053788F
:100390005BB2002BFBDB70470018004000B583B058
:1003A000124A936940210B43936101A900230B700A
:1003B00005200F4B984705200E4B98470E4A13789F
:1003C00001210B43137053785BB2002BFBDB0B4B0B
:1003D00019004031002204C39942FCD11022084B7D
:1003E0001A60084B984703B000BDC04600040040A7
:1003F000151B0000891A000000180040180E00208C
:1004000000E100E085030000002303604360012257
:100410000272427283720233C3727047F0B583B0C6
:1004200005000C0001A900234B70CB7023790B70E1
:10043000237A8B702078154B984700201F2D00D809
:10044000134807222A409200E77AA37A002B01D0B2
:1004500008231F43EB089B00C31899690F26964099
:10046000B14397403A000A439A61637A002B06D160
:1004700043690122AA409343436103B0F0BD42693E
:100480000123AB4013434361F7E7C0460D1C000056
:100490000018004000B583B001AB80221A700A78C2
:1004A0005A704A789A708A78DA701900014B984726
:1004B00003B000BD0D1C000010B5144B1A68146881
:1004C000D18A938A1940207AE379034058B20028F0
:1004D00006DBD8070FD5CB070AD40123237210BD42
:1004E0004B0702D480232372F9E713699847F9E791
:1004F00093689847F1E79B07F1D58B0702D4022355
:100500002372ECE7D3689847F9E7C046580E0020FD
:10051000F0B5DE4657464E464546E0B587B08046C4
:10052000049116001F000022002300218B463F2467
:1005300001202100009601975C46039444460594EF
:1005400013E02024641A0500E540A84614E0009C4E
:10055000019D121BAB415C464D462C43A346039CB8
:1005600045462C430394013925D3202464420C19B9
:10057000E7D40500A540A84604008C40A146921887
:100580005B4114001D00059E4F463E40B446049E4C
:1005900047463E40B246664657463E4303D00600B5
:1005A000264332002B00009C019D9D42DBD8CED11A
:1005B0009442D8D8CBE7039B5846190007B03CBCFF
:1005C00090469946A246AB46F0BD10B54908402377
:1005D0000024814202D2180010BD1C00091A631CBD
:1005E0009BB28842F9D94023FF2CF4D81480002311
:1005F000F1E70000F0B583B00F00160008AA1178EB
:1006000004004C434022BC4202D9100003B0F0BDAC
:10061000002B14D1020008000021194CA047010052
:100620003A0000230020174CA04700220123121A91
:100630008B41120C1B041A4332800022E5E7002292
:10064000012BF9D10A00002300210D4CA047020024
:100650000B0000920193380000210A4CA0470500CE
:1006600080239B0140229842CFD8790FF800009A4E
:10067000019BA047EA00821AD2B252032A43DBE769
:10068000655600001105000010B582B004000E4B45
:100690001B78002B07D0002905D10B4B5B788342D8
:1006A00010D01D200CE001A90C701320074B9847B7
:1006B0001320074B9847044B5C7001221A700020EE
:1006C00002B010BD0020FBE794000020151B0000C5
:1006D000891A0000404B984231D00AD93F4B9842CA
:1006E0004DD03F4B98425AD03E4B984237D00020D5
:1006F00070473D4B98420CD03C4B9842F7D10129B2
:1007000017D000295DD0022915D0032915D000206B
:10071000EEE7012907D0002951D0022905D003298D
:1007200005D00020E4E73248E2E73248E0E732480B
:10073000DEE73248DCE73248DAE73248D8E7012919
:1007400007D000293FD0022905D0032905D0002079
:10075000CEE72D48CCE72D48CAE72D48C8E7012948
:1007600007D0002931D0022905D0032905D0002067
:10077000BEE72848BCE72848BAE72848B8E7012977
:1007800007D0002923D0022905D0032905D0002055
:10079000AEE72348ACE72348AAE72348A8E70129A6
:1007A00007D0002915D0022905D0032905D0002043
:1007B0009EE71E489CE71E489AE71E4898E71E4899
:1007C00096E7032094E71D4892E71D4890E71D48EF
:1007D0008EE71D488CE7C04600100042001800421A
:1007E000001C00420014004200080042000C0042BD
:1007F00003000500030006000300070003000100DA
:1008000003001E0003001F0002000D0002000E0086
:1008100002000F0003001100030012000300130088
:1008200005003F0005003E000500520003001700D0
:1008300003001800030019000300040002000C006C
:1008400003001000050053000300160030B587B008
:100850000B4B6A4632CB32C232CB32C2009B834250
:100860000BD001239A0069465258824206D00133C8
:10087000062BF7D1002007B030BD0023D8B2FAE72D
:10088000B45F000070470000F0B50A4B1B78002BE6
:100890000CD1094F094E0A4D0024DE515A1914603B
:1008A0000433182BF9D10122024B1A708000024B3D
:1008B000C150F0BD9600002098000020850800007F
:1008C0005C0E002000B583B009236A461370013323
:1008D0005370013393700133D370013313710133BB
:1008E0005371034B98476B46185603B000BDC04682
:1008F0004D08000010B5024B1B680020984710BD42
:100900009800002010B5024B5B680120984710BD8D
:100910009800002010B5024B9B680220984710BD3C
:100920009800002010B5024BDB680320984710BDEB
:100930009800002010B5024B1B690420984710BD99
:100940009800002010B5024B5B690520984710BD48
:1009500098000020F0B5D6464F4680B58BB0814652
:100960000F001400030019600B689B0709D40B6883
:100970000520DB0700D498E00BB00CBC91469A46EA
:10098000F0BD936A0593D36A0693136B0793536B79
:100990000893002605AB01930AE03800934B984773
:1009A0000CE00F23184081422DD10136042E2FD0A8
:1009B000F1B2B300019A98580028EED0431CF4D04D
:1009C0000104090C000CC3B29C460023020605D4A6
:1009D00063465B09DB01864A924653441F22604608
:1009E0000240981840300078824680205546ED0736
:1009F000D9D552089B1830331878C0B26346DB074C
:100A0000CFD50009CFE700234A4613601C20B3E787
:100A10001320784B984722780025012A27D0636855
:100A2000A2681343E26813432B43227C617C0029B4
:100A300001D080210B43A17C002902D080218902B2
:100A40000A43E17C002902D0802189000A43217DEC
:100A5000002902D0802189010A433968022003431A
:100A60008B4218D000234A4613601C2084E704AA56
:100A70000100A069604B984703001720002B00D0AD
:100A80007AE73B7BDBB204AA127805309A4200D0A9
:100A900072E70C35C3E77B689342E3D123784A467B
:100AA0005371237C9371002066E70800534B9847ED
:100AB000534A116A851C0123AB400B43136209A9F9
:100AC0002426A35D0B701430C5B228004D4B984707
:100AD00028004D4B9847A05D00214C4B9847237848
:100AE000012B19D04B461E6804AB80221A700022DD
:100AF0005A7001219970DA702378002B01D104AB70
:100B00009A70A36A0593E36A0693236B0793636B5A
:100B10000893002705AD11E03B680C2213433B60AE
:100B2000E0E73000314B98470DE004A90870000C55
:100B3000C0B2374B98470137042F07D0F9B2BB003A
:100B400058590028EDD0431CEFD1F4E723784A46EA
:100B50005371237C9371A37CD371237D1372002284
:100B600002ABDA802378012B28D06368A268134394
:100B7000E2681343217C627C002A03D1254A9278E3
:100B8000920701D580221343A27C002A02D0802242
:100B900092021143E27C002A02D08022920011438B
:100BA000227D002A02D08022920111433268134331
:100BB000336073680B4373600020DDE64B461868B2
:100BC0000E4B98471430C0B20A4B9847010002AB55
:100BD0009A1DA069084B984703001720002B00D0EE
:100BE000CAE602AB06331B783373BEE7D5060000B6
:100BF00000440041311B0000CB0500004D080000FF
:100C000000040040151B0000891A0000890600003E
:100C10000D1C00000020004110B544791523012C63
:100C200001D0180010BD047A0023002CF9D1002A4D
:100C300058D04B78002B44D003681B7EDB0710D4C0
:100C40000A78D1090023002904D15309DB012E4978
:100C50008C4663441F21114001228A409A6105237A
:100C6000DFE70A78D4090023002C04D15309DB0103
:100C7000254CA44663441F2414400122A2405A611B
:100C800003681A7ED20701D58A789A62C279002356
:100C9000002AC6D102680421137E0B42FCD0117ECB
:100CA00000234907BDD5538B5B0701D5042353832C
:100CB0008379012B02D0936A0023B2E7936A002361
:100CC000AFE70A78D1090023002904D15309DB01D9
:100CD0000D498C4663441F21114001228A405A610C
:100CE00000239EE70A78D1090023002904D1530983
:100CF000DB0105498C4663441F21114001228A40D3
:100D00009A6100238DE7C04600440041F0B5DE46FD
:100D100057464E464546E0B591B005000C0016001A
:100D200029600800BC4B9847020023680520DB07B8
:100D300006D511B03CBC90469946A246AB46F0BDE4
:100D4000236817309B07F4D4B449086A971C012321
:100D5000BB4003430B620FA92D27F35D0B701432C8
:100D6000D3B202931800AE4B98470298AD4B984708
:100D7000F05D0021AC4B9847F37A6B712423F35C50
:100D8000AB712523F35CEB71F37E2B72337F6B72B7
:100D90002B6898461800A04B9847143000220E2369
:100DA00006A98C4663441A80328A02928023DB01B2
:100DB0009A4200D19EE00FD9C023DB01029A9A42E9
:100DC00000D192E080231B029A4200D01FE103234E
:100DD00006930023079308E080239B019A4200D0EA
:100DE00015E1102306930F3B079333680593F368CF
:100DF000039373690493337E9B462623F35C9A46E0
:100E000073689946002B00D1A0E080235B059945CB
:100E100000D184E0737E002B02D0B37E42469373F0
:100E20002A68029FD369002BFCD10E3306AA944690
:100E300063441B8842469381059B039A1343049A9B
:100E400013434A4613431F435B461B021F4353464B
:100E50005B071F432723F35C002B01D104331F439F
:100E6000737E9B02327F52021343727F120213433E
:100E70002422B25C520413432522B25C12041343B1
:100E8000B17AF27A114319433389FF2B00D181E003
:100E900080225204174319432C23F35C002B03D107
:100EA000624B9B789B0701D580231F432A68D36937
:100EB000002BFCD1434659602A68D369002BFCD132
:100EC00043461F600EAB80221A7000225A70DA70FF
:100ED0009A70336B0A93736B0B93B36B0C93F36B36
:100EE00002930D9300270AAE63E008230693073BA5
:100EF00007937AE733680593F36803937369049360
:100F0000337E9B462623F35C9A4673689946002BF2
:100F100018D080235B05994501D0002025E02723C8
:100F2000F35C002B00D075E7336A1F00C0B2404B62
:100F3000984701000E2206AB9C46624438003D4BA8
:100F4000984712E008230693002307932723F35CB6
:100F5000002B0ED0069B0093079B0E2206A98C4601
:100F60006244B16A306A344FB847002800D0E0E6E6
:100F700050E7336A1F00C0B22D4B98470100069B13
:100F80000093079B0E2206A88446624438002A4F2D
:100F9000B847EAE7F37E002B00D17DE78023DB042E
:100FA0001F4379E72000254B984707E00137042FBE
:100FB0000DD0F9B2BB0098590028F3D0431CF5D0EE
:100FC0000EA90870000CC0B21D4B9847EEE7002335
:100FD000EB602B616B61AB61EB612B62AB626B62AF
:100FE0000022EB85AB853033EA540133EA540133F8
:100FF000EA540133EA542868074B98470400114922
:10100000114B9847A400114BE550002091E61023A6
:10101000069300230793E8E64D0800000004004013
:10102000151B0000891A00008906000000200041FD
:10103000311B0000CB050000F5050000D5060000BF
:101040000D1C000045120000890800005C0E002005
:10105000C2791C23002A01D118007047C28D92B2B8
:10106000173B002AF8D10368DA69002AFCD11985F8
:1010700002211A7E0A42FCD00023EDE782791C236C
:10108000002A01D118007047828D92B2173B002AC6
:10109000F8D10268107E4007F4D5D369002BFCD14B
:1010A000538BDBB298061DD0980703D502235383D8
:1010B0001833E7E7580703D5042353831A33E1E7CE
:1010C000D80703D5012353831233DBE7D80603D5B2
:1010D000102353833233D5E79B0603D52023538354
:1010E0002133CFE7138D0B800023CBE7F0B5CE463D
:1010F000474680B583B0050001911720002A04D12E
:1011000003B00CBC90469946F0BDEB790530002B3E
:10111000F6D02C68E369002BFCD1013A93B29946D2
:10112000002601271F4B984611E0731C9BB2019AC1
:10113000915D6A79012A17D089B21E0028001A4BE6
:1011400098474B46013B9BB29946434513D0237EBB
:101150003B42EAD1134B227E3A42E6D1012B19D011
:10116000013B002BF7D1E0E70236B6B2019AD35C1F
:101170001B021943E2E7237E9B070DD4094B022192
:10118000227E0A420AD1012B0AD0013B002BF7D163
:101190000020B5E71220B3E70020B1E70020AFE759
:1011A0001220ADE7FFFF000051100000F0B5D64659
:1011B00000B584B0040001911720002A03D104B0C7
:1011C00004BC9246F0BDA3790530002BF7D0266809
:1011D000013A93B29A460025042719E0002302AA97
:1011E000D380911D2000154B98470028E7D1691C3A
:1011F00089B202ABDB88019A53556279012A14D077
:101200000D005346013B9BB29A460D4B9A45D6D0F2
:10121000337E3B42E2D10A4B327E3A42DED1012B91
:1012200009D0013B002BF7D1D8E70235ADB21B0A3C
:10123000019A5354E5E71220C1E7C0467D10000033
:10124000FFFF0000F8B58000624BC5582C68E369C9
:10125000002BFCD1237EA67D1E403023EB5C312287
:10126000AF5C1F40F30722D5EB8D9BB2002B1CD047
:10127000AA6A1378DBB2511CA962697901290ED0E0
:101280009BB2DB05DB0D2385EB8D013B9BB2EB8530
:10129000002B0CD1013323750133A37507E051787E
:1012A00009020B430232AA62EBE701232375B3075D
:1012B00006D50223237500223133EA54FB071AD4E2
:1012C000730765D5AB8D9BB2002B5FD0638BDBB210
:1012D0001A0714D43F221340002B34D09A0711D59B
:1012E0001A223223EA54303B63837B0750D528000F
:1012F0006B6998474CE02800EB689847E0E7372295
:101300001340E9E75A0705D51E223223EA542E3B43
:101310006383EAE7DA0705D513223223EA54313B27
:101320006383E2E7DA0605D542223223EA54223B00
:101330006383DAE720221A42D7D021323223EA54DB
:10134000123B6383D1E7238DDB05DB0DDAB2696ADB
:101350000A706A6A511C69626979012910D0AB8DE3
:10136000013B9BB2AB85002B12D1043323750022C5
:101370002E33EA54BB070BD528002B69984707E0AA
:101380001B0A53706B6A01336B62E8E70423237511
:10139000F30604D5102323752376FB060ED4B3067B
:1013A00004D52023237523763B070BD4330704D5BC
:1013B000082323752376BB0608D4F8BD2800EB6903
:1013C0009847ECE72800AB699847EFE72B6A2800BD
:1013D0009847F2E75C0E002010B5082803D880007B
:1013E0001B4B1B589F46002030E01A4B18692DE01C
:1013F000194B1B6A9B059B0F1848D84026E0154BDC
:10140000586923E0134B1B6800209B071ED5124927
:101410001022CB681A42FCD00E4B1B685B0701D42C
:101420000F4813E000200F4B98470A4B9B681B04A2
:101430001B0C58430AE05023074AD35C00205B078B
:1014400004D5044BD86801E08020000210BDC046DE
:10145000CC5F0000B00000200008004000127A00BD
:10146000006CDC02311B000070B50C490B6A04787B
:10147000857840780122104080014026B343034321
:101480002A40D201802083431343032222401202C8
:101490000348034013430B6270BDC0460008004080
:1014A000FFFCFFFFF0B5CE46474680B5194B994685
:1014B0009B6941788C4605780679C77844798078AD
:1014C0000121084080000422934303436046084002
:1014D000C000043293430343380008408001402792
:1014E000BB43034330000840C0018026B34303439D
:1014F000072005402D02084803402B4321400903E3
:10150000064803400B434A4693610CBC90469946FB
:10151000F0BDC04600080040FFF8FFFFFFEFFFFFEF
:10152000F0B5DE4657464E464546E0B50100264B2F
:101530009B469B8A45780078424242419146887892
:10154000CA7894460A7990464E7B0F7B8C7B8A68DA
:101550001E494A6101214A46920091460422934362
:101560004A46134342460A40D2009046082293431B
:101570004246134362460A401201944610229343A6
:1015800062461343084040012022934303430F4027
:10159000BF01402083433B430E40F601403083436C
:1015A0003343793805402D02094803402B4321403D
:1015B0000903084803400B435A4693823CBC9046BB
:1015C0009946A246AB46F0BD00080040B00000209E
:1015D000FFF8FFFFFFEFFFFF10B5037A9B061B0C20
:1015E00042899205920D134318494B608379C27961
:1015F000134342888488224313434278D201134321
:101600000B600378042B11D0202B0ED1037B9B069B
:10161000028A1343C28912040D490A4013430B4A3C
:10162000936011680B4B0B43136010BD037B9B064B
:10163000028A1343C289120405490A401343034A2C
:101640009360136804210B431360EEE7B0000020A1
:101650000000FF0324040000082803D88000254B65
:101660001B589F46172044E0234A136A02210B436C
:10167000136200203DE0204A936902210B439361ED
:10168000002036E01C4A138A02210B4313820020FB
:101690002FE0194A938A02210B439382002028E00D
:1016A00016490B68022213430B60134B9A841900EE
:1016B0000E32CB681A42FCD0104A91680E4BD962A8
:1016C00052689A6200229A8419001032CB681A423A
:1016D000FCD00A4B1B689BB2074A9384002008E0A9
:1016E000054944228B5C022003438B54002000E018
:1016F00000207047F05F000000080040B0000020AC
:10170000F0B5D6464F464646C0B590B0C222D2008C
:10171000634B9A60634A53681E218B431A390B430B
:101720005360032201AB1A7000245F4DE0B201A99F
:10173000A8470134252CF9D10CA80023037080227E
:1017400012028260C3700122027103738373062147
:10175000417082704373554B98470520544B98470E
:101760004F490222CB681A42FCD04D498B8A802215
:1017700013438B824F4C2368DB048A695B0E1B0486
:101780004D48024013438B610AA8012343708370C4
:1017900003710722027000254571C370474B9847BB
:1017A0000420434B984705AB00225D809D809A71D1
:1017B000DA713F2159813B3919705A7023689B0EA9
:1017C0003F2B6AD005A80372B723DB0003820723EF
:1017D00003733833C3813A4B984704A800254570FA
:1017E00005708570374B98470620314B99469847CE
:1017F000354B984701AC01266660657025726572AD
:101800000523237021000120304B98469847012082
:101810002F4FB84765706572042323701C339A46B6
:101820006360267221000220C0470220B84765701D
:1018300025726572032323705346636021000420E0
:10184000C0470420B847267021000020164B984757
:101850000020204B98470720C8471149D022CB6869
:101860001340D02BFBD11C4A002313725372937286
:10187000D37201A901224A604B700B724B7207337D
:101880000B700020114B98470020114B984710B067
:101890001CBC90469946A246F0BD203B92E7C0464C
:1018A0000008004000400041151B00002115000009
:1018B0005916000024608000FFFF80FFA51400007F
:1018C000D915000069140000DD180000011900009E
:1018D000B9190000891A000000040040064A936903
:1018E00008210B4393610122044B1A7019000B78F5
:1018F0001342FCD17047C04600040040000C004079
:1019000070B5060004000D782D0205434B78002BBE
:1019100002D08023DB021D434B7A002B02D08023B0
:101920001B031D434868012810D9431E184234D1B7
:10193000022830D90223002201325B009842FBD8F2
:1019400012023243140080235B031D430B7A002BE9
:1019500002D080239B031D43134A53785BB2002BB4
:10196000FBDB124B9847124B1E700F4A53785BB249
:10197000002BFBDB0C4B9C601A0053785BB2002BF6
:10198000FBDB094A5368802149020B401D43556027
:10199000084B984770BD0022D2E7040234438023ED
:1019A0009B021D43D2E7C046000C004081010000AD
:1019B000080C0040C101000010B504000B4A537828
:1019C0005BB2002BFBDB0A4B98470A4B1C70074AA3
:1019D00053785BB2002BFBDB044A516880235B0227
:1019E0000B435360044B984710BDC046000C0040A9
:1019F00081010000040C0040C101000070B504002A
:101A00001A4A53785BB2002BFBDB194B9847194BF2
:101A10001C70164A53785BB2002BFBDB134E7068C8
:101A2000C004C00E144B98470500124B1C7076681A
:101A3000F602F60F114B1C700C4A53785BB2002B68
:101A4000FBDB0A4B9C682402240C0D4B9847002EAC
:101A500007D1012C07D9210028000A4B984705001F
:101A600001E00134E540280070BDC046000C004094
:101A700081010000040C0040D9130000080C004054
:101A8000C10100004D55000010B50400064B9847F9
:101A9000064B1C70064A53888021C9010B435380B2
:101AA000044B984710BDC04681010000020C004065
:101AB000000C0040C101000010B504000F4B984716
:101AC0000F4B1C700F4A53881B05180F53880E4983
:101AD0000B40538053880D490B40538011008022E6
:101AE000D2014B881342FCD106494A8803020648BA
:101AF000024013434B80064B984710BD8101000004
:101B0000020C0040000C0040FFF0FFFFFFBFFFFF92
:101B1000C101000010B50C7824020443024B984721
:101B2000A4B2024B5C8010BDB91A0000000C00404A
:101B300010B50400064B9847064B1C70064B5C889A
:101B40002405240F054B98472000054B984710BDEE
:101B500081010000020C0040000C0040C1010000A7
:101B6000FD19000030B5D378002B35D11378802BC8
:101B700029D01B0680246402234354780225AC43F9
:101B800006D19478002C20D18024A4022343416004
:101B90005478013C012C1CD90D042D0CA024E40523
:101BA0002C431C4384620D0CD02424062C431C437C
:101BB0008462D478002C22D15B031CD59378012B4E
:101BC0001ED0416117E00023D7E7C024E40223437D
:101BD000DDE70D4C2340DFE741600C04240CA0231B
:101BE000DB05234383620C0CD0231B062343836253
:101BF000D378002B03D15378013B012B02D930BDA0
:101C00008161F8E78160FAE7FFFFFBFF10B50A008A
:101C1000C1090023002904D14309DB0105498C4691
:101C200063441F242040012181401800024B984743
:101C300010BDC04600440041651B00007047000015
:101C400010B5054B9847054B9847054B9847054BF2
:101C50009847054B984710BD01170000F10100009F
:101C60003D1C00009D0300003D1C0000931C9B00D8
:101C70001950022A09D0032A0CD0012393401A00DC
:101C8000037E1343037600207047037E1022134324
:101C90000376F8E7037E202213430376F3E7000080
:101CA00070B58000164BC45823689D7B227E637EEE
:101CB00013401D40EB0706D4AB070BD4EB0610D442
:101CC000AB0615D470BD2000A36898470123226895
:101CD0009373F1E72000E368984702232268937327
:101CE000ECE7200023699847102322689373E7E705
:101CF000200063699847236820229A73E2E7C04670
:101D0000740E002010B50020014B984710BDC0464E
:101D1000A11C000010B50120014B984710BDC04622
:101D2000A11C000010B50220014B984710BDC04611
:101D3000A11C000030B585B001AA0B4B32CB32C2DA
:101D4000019B98420DD0029B984208D00023039A31
:101D5000824202D0180005B030BD023302E00123F8
:101D600000E00023DBB2F5E714600000F0B587B0B7
:101D700004000D0016000800854B9847070005ABCE
:101D80001B221A7001325A709A7003AB8022120122
:101D90001A80802252015A80802292019A80002368
:101DA000A360E36023616361237663768200794BED
:101DB000D4502560B378082B06D023712B880520DA
:101DC000DB0705D507B0F0BD1720FA07FAD5F4E711
:101DD000EB7B1730DB06F5D42B889B07F2D4337CE2
:101DE000002B79D1337F002B00D081E06A49086A4B
:101DF0007A0003ABD35A03430B62B378082B00D1AC
:101E000086E001A933780B7005ABDF5D3800634BCA
:101E100098473800624B98473189B3880B43B178B3
:101E2000B279114319437378002B02D080231B0130
:101E300019432268D37B5BB2002BFBDB2980717BCB
:101E40004B1E99418900B37B002B01D0012319431C
:101E50002268D37B5BB2002BFBDBFF232B710029B5
:101E600005D02268D37B5BB2002BFBDB6971B17AB2
:101E7000F37A002B01D010231943337B002B01D0C0
:101E8000202319432268D37B5BB2002BFBDBA971B3
:101E90002268D37B5BB2002BFBDB2379042B3FD082
:101EA000082B5ED01720002B00D08BE7D37B5BB2D2
:101EB000002BFBDB338D2B822268D37B5BB2002BA4
:101EC000FBDB738D2B832268D37B5BB2002BFBDBA8
:101ED000B38D6B83002075E702A901238B7000226C
:101EE000CA70327E0A704B70307D2E4B984779E76E
:101EF00002A901238B700022CA702432B218127812
:101F00000A704B701F33F3181878264B98476DE70B
:101F1000086A7A1C520003ABD35A03430B6270E782
:101F2000D37B5BB2002BFBDB2823F35C2B74226892
:101F3000D37B5BB2002BFBDB2923F35C2B75226880
:101F4000D37B5BB2002BFBDB2A23F35C2B7622686E
:101F5000D37B5BB2002BFBDB2B23F35C6B76002087
:101F600030E7D37B5BB2002BFBDBB36A2B612268CB
:101F7000D37B5BB2002BFBDBF36AAB612268D37BC4
:101F80005BB2002BFBDB336BEB6100201AE7C04632
:101F9000351D0000740E002000040040151B0000D9
:101FA000891A00000D1C00000268D37B5BB2002B75
:101FB000FBDB0379042B05D0082B09D00020002B74
:101FC00003D07047107CC0B2FBE7108A80B2F8E7FC
:101FD0001069F6E710B50468E37B5BB2002BFBDB0E
:101FE0000379042B05D0082B14D01720002B08D020
:101FF00010BD17200129FBD8D2B261180A76002043
:10200000F6E717200129F3D892B20C3149000A53A0
:102010000020EDE717200129EAD8063189000A518E
:102020000020E5E7FEE70000F8B52A4A2A4B9A426D
:1020300011D01A00294B9A420DD2294A03339B1A18
:102040009B0801339B000022234822498C5884506E
:1020500004329A42FAD1234A234B9A420AD2D343FA
:1020600021495B1803218B4304339B18002102C2D2
:102070009342FCD11D4AFF211D4B8B439360FD39D8
:1020800090235B001B4AD1501B4AD3780325AB43F6
:1020900002242343D370D3780C27BB430826334351
:1020A000D370164B987B30229043202210439873B4
:1020B000997BB943314399739A7BAA4322439A731C
:1020C0000F4A536880210B4353600E4B98470E4BC9
:1020D0009847FEE70061000000000020700000202B
:1020E00004000020700000209C0F002000ED00E0A4
:1020F0000000000000700041005000410048004115
:1021000000400041B95600001D540000F0B5C6461D
:1021100000B50C00904600280FD1002A11DD8F1861
:10212000094E0A4D306821002B6898470134BC42A3
:10213000F8D1404604BC9046F0BD01235B4298466E
:10214000F7E78046F5E7C046880E0020800E0020A5
:10215000F0B5C64600B50E0015000138022810D8AB
:10216000002A11D000240C4B98460C4F43461868A7
:10217000315D3B689847002808DB0134A542F5D162
:1021800006E00124644203E0140001E001246442FB
:10219000200004BC9046F0BD880E0020840E002074
:1021A0000300064A1268002A04D0044A1068C318C3
:1021B000136070470249014A1160F6E7C800002029
:1021C000A02F002001204042704780239B014B60DC
:1021D000002070470020704770B582B005000E00E7
:1021E00000226B46DA80064C6B46991D2800A047FA
:1021F0000028F9D16B4606331B88337002B070BDDE
:102200007D10000070B505008CB2034E210028003F
:10221000B0470028FAD170BD5110000010B582B04F
:102220006B46DC1D012221000F48104B984772B607
:10223000BFF35F8F00220E4B1A700E4B1B78217874
:102240000D4AD1549B2B0AD001330A4A1370012244
:10225000074B1A70BFF35F8F62B602B010BD002249
:10226000044B1A70F3E7C046CC000020AD1100000B
:10227000080000209D01002000010020F0B591B071
:102280008023DB05009300230193FF2269460A8126
:1022900000228B72CB720124242168464454013100
:1022A000445401314354013143540A93053143549A
:1022B0000131435405930382C37602760277427656
:1022C00013238376427780235B0303932F4B0C9376
:1022D0002F4B0D9301235B420E930F9396231B020A
:1022E00008932C4D2C4B1D602C4A2D4B1A602D4A07
:1022F0002D4B1A606A462D4928002D4B98472D4FCB
:102300003B68986800212C4EB0473B685868002114
:10231000B0472E683000294B98471F23184084404F
:10232000274B1C602A68D369002BFCD1336802223A
:1023300013433360174B1B68DA69002AFCD15968D4
:10234000802252020A435A600121124AD171DA698D
:10235000002AFCD1DA69002AFCD159688022920255
:102360000A435A6001210B4A9171DA69002AFCD1B3
:1023700014490020144B984704220C4B9A75FD32E7
:10238000FF320F4B1A6011B0F0BDC04603000400CD
:1023900003000500CC000020880E0020052200006C
:1023A000840E0020D9210000800E00200008004289
:1023B0000D0D00000C000020F9570000C5080000BA
:1023C00000E100E01D22000089080000F0B583B0A4
:1023D000060001916B469D88054C064F2A0031008E
:1023E0002000B8470028F9D1019803B0F0BDC046DD
:1023F000CC000020ED10000070B502001F4B1C78CF
:102400001F4B1B789C421ED3E31A1E4803701D4BC2
:102410001878002830D09B281BD9194B1C709C20A1
:10242000184B1870081C9C2901D9174B1878C0B29A
:10243000002821D0124B1B78441EE4B20134141939
:10244000124D00260EE020006438C31A0D480370B8
:10245000DDE7031C884200D90B1CD8B2E8E7330043
:10246000944207D0E95C117001329B2BF7D0013305
:10247000DBB2F5E7024A137070BDC0469D01002033
:102480009C0100209E01002020600000000100202F
:1024900000B583B06B46D871073301211800024B99
:1024A000984703B000BDC046CD23000000B583B0FF
:1024B00001216B46D81D054B9847002803DD6B466C
:1024C000D87903B000BD01204042FAE7F9230000AB
:1024D00080221203014BDA617047C046004400417C
:1024E000F8B504000020002902D02378102B00D07A
:1024F000F8BD0529FCD1134E3000134FB847134DDA
:102500002800B8476278A3781B021343B360002306
:1025100033730F4B336130000E4EB047E2782379AE
:102520001B021343AB6001232B730B4B2B61280061
:10253000B04780221203094B5A61094B984701208A
:10254000D6E7C046C001002015450000D401002098
:10255000F525000081450000D12400000044004121
:10256000012B000010B5017B8068014B984710BD1E
:10257000E1240000F8B5124B1B68002B00D0F8BD19
:10258000104C00250E4F104E03E001350934052D87
:10259000F5D0E378002BF8D03C60EB005B19094ADA
:1025A0009A5C08498C4663445B781B021343738131
:1025B000231D3361A37833753000044B9847E4E75B
:1025C000E8010020EC010020A00100208D2B00007C
:1025D00010B5064A1368012149421970597000214B
:1025E000D9701160024B984710BDC046E801002029
:1025F0007525000010B5054B984780221203044B47
:102600009A610448044B984710BDC046112B000046
:1026100000440041D40100201545000070B5144B62
:1026200000221A7313491961134B012119731349BD
:102630001961134B1A60134B5A8102321A735A7381
:102640009A73114A9A61114900220C0001204042FC
:102650000025D3009B181855E3185870CD7001322F
:102660000931052AF5D10A4902200A4B984770BD65
:10267000C0010020F5250000D4010020D124000075
:10268000E8010020A0010020D1250000EC0100207D
:1026900065250000F12A000010B5144B9B681B0251
:1026A0001B0C834216D0114B5B8A83420ED00F4A1B
:1026B000D17E137F1B020B43984209D0928C0023DA
:1026C000824201D0180010BD042204E0022202E080
:1026D000032200E00122D3009A18044B9B18012228
:1026E000DA70034B98470123ECE7C046EC01002069
:1026F0007525000070B500210020244B9847244B1D
:10270000D875000A1876234B1B78002B06D1224877
:10271000224B98470422224B1A7070BD21490A7837
:102720001B4B10003038D8764C78200030381877A2
:10273000887830385877C8783038987708793038C2
:10274000D877487930382025585589793039212073
:1027500019541548303A1202303C121942810122B4
:10276000027342730232827303612F2303750F4B8E
:102770008361802212030E4B5A610E4B9847002250
:10278000044B1A700232064B1A70C0E7CD2E0000BF
:1027900044020020B00200203002002081450000E9
:1027A000A80200208C0E002088020020E1270000F3
:1027B000004400418D2B000010B5064B1B78042B04
:1027C00003D00548054B984710BD0922014B1A70EC
:1027D000FAE7C046A8020020300200208145000030
:1027E00010B5040080221203194B9A61037F002B5D
:1027F00013D1184B1B78002B06D0637F012B1BD005
:102800000322154B1A7010BD114B5A611348144B1B
:10281000984701220F4B1A70EFE70E4B1B78002BE5
:10282000EBD0802212030A4B9A610C480D4B98475B
:102830000022084B1A70E0E70B480A4B98478022A9
:102840001203034BDA610522034B1A70DBE7C04623
:102850000044004173020020A802002074020020FE
:1028600015450000814500001C02002070B50600DF
:10287000846880221203184BDA61437B63760E234F
:10288000C356A376E07E3030C0B2144DA847207FF7
:102890003030C0B2A847607F3030C0B2A847A07FB8
:1028A0003030C0B2A847E07F3030C0B2A847202304
:1028B000E05C3030C0B2A8472123E05C3030C0B2C9
:1028C000A8473088064B9847002801D1012070BDE9
:1028D0000120044B9847F9E700440041912400008F
:1028E00099260000E536000010B5024B9847024BD0
:1028F000984710BD0D4400007D22000070B5414B8B
:102900009847414B1B78012B69D0002B14D0032B27
:1029100068D03E4B9847002809DB3D4C3D4E3B4D6F
:102920002368F05401332360A8470028F8DA384BB5
:102930001B68062B5DDC70BD374B01251D70002127
:1029400059700024002058809880D88018815981BF
:10295000324ADA60802212021A61314E9E820F22C0
:102960009A75D97519765C769C769C77DC772022EF
:102970009C5421315C5401315A5417390332995413
:10298000284A243303CA03C31188198092789A70A5
:102990000020254B98473000244B98470F20244BAC
:1029A00098470120234B98472348244B98472449B4
:1029B0000120244B9847244BC82252009A601C7374
:1029C000224A1A6180221203214B5A61214B9847F7
:1029D000214B9847214B98470B4B1D7099E7204B93
:1029E000984796E718481F4B98470422064B1A70E1
:1029F0008FE70022064B1A6001321B4B1A70184BEE
:102A0000984798E731440000A8020020AD24000058
:102A1000AC0200208C0E00204402002000010101C5
:102A20003412000024600000C92A0000DD2A0000E2
:102A3000194200000542000030600000113B000018
:102A40006D280000F12A000030020020B9270000A4
:102A500000440041D5420000255700001D2600001B
:102A6000F526000081450000B002002010B50E4A96
:102A700000231371537113805821535213004032B5
:102A80000021996004339342FBD1084B9847084BCF
:102A90009847084B9847084B9847084B9847084B6E
:102AA0009847084B984710BD940E0020353E000013
:102AB00055360000F92C0000812B0000FD2D000090
:102AC000FD3A00008133000010B5024B1880024B24
:102AD000984710BD940E00205D42000010B5024BD7
:102AE0005880024B984710BD940E00203D420000D4
:102AF00002308000014BC1507047C046940E002048
:102B0000024958228B5A01338B527047940E002091
:102B1000024958228B5A013B8B527047940E002079
:102B200010B5044B9847044B9847044B9847044B07
:102B3000984710BD0137000039400000C12B00004C
:102B4000F53B000010B50C4B1B68002B10D05A68E9
:102B5000904205D01B68002B0AD05A688242F9D1F6
:102B60008522825C1A778822825C5A7702221A7246
:102B7000024B984710BDC046B4020020852D0000CE
:102B80000022014B1A607047B40200200023037238
:102B900003774360084958228B5A01338B52074B05
:102BA0001B68002B03D00360044B18607047036060
:102BB000024B1860FAE7C046940E0020B4020020D1
:102BC00070B5474B1A68002A00D188E01400237AB8
:102BD000002B05D0022B6ED02468002CF7D17EE0AC
:102BE000404B9847051E62D06060012020723E4B2A
:102BF0008922AB54190A2A0089325170190C91703C
:102C00001B0ED370A27B920801231A4088216A54BC
:102C1000A17B1940EA7A82430A43EA72A27BD20876
:102C20001A409200E97A033081430A43EA72A27B98
:102C3000520813405B00EA7A02218A431343EB7285
:102C40002A4A13790133DBB213712B7313786B7338
:102C50005378AB736389A27AEA731B0A2B74617B86
:102C60000F2319406A7C0B3082430A436A74227B2B
:102C70001201697C0B4013436B748123E85C0133C0
:102C8000EB5C1B0203438322A85C00040343013274
:102C9000A85C00061843227D2169154B98476B7884
:102CA000227D9B186B702800124B984717E0022377
:102CB0002372237713E0A24204D1094B22681A60E1
:102CC00005E01A0013689C42FBD123681360074992
:102CD00058228B5A013B8B52A3692000984770BD44
:102CE000B4020020152D0000452B0000940E00209A
:102CF00001570000693E0000044B054A9918002264
:102D00001A708D338B42FBD17047C046B802002049
:102D10008205000070B5184B1B78002B0DD0164AA9
:102D20008D32012318001178002907D001338D322C
:102D30000A2BF7D10025280070BD00208D264643C0
:102D40000D4CA5198D22002128000C4B984710230B
:102D50006B703000123020182B0081331870020A7B
:102D60005A70020C9A70000ED870054958228B5A7E
:102D700001338B52DFE7C046B80200201357000032
:102D8000940E002000230370024958228B5A013B05
:102D90008B527047940E0020002814D08D300D4BBC
:102DA0000D4A94466344984211D20378002B0DD10A
:102DB000084A094B9C4662448D30904205D2037804
:102DC000002BF9D002E00348EFE700207047002015
:102DD000FCE7C046B80200208205000000228523DF
:102DE000C254054A13790133DBB2137103731378AC
:102DF0004373537883737047940E0020F0B5094BEA
:102E00000233002201277F42064C012600251F8045
:102E1000D000015DB14301551D7101320833642AB0
:102E2000F5D1F0BD3C08002030B50C4A0232002339
:102E30000A4D03E001330832642B0CD0148884421D
:102E4000F8D1DC00645DA407E40F8C42F2D1DB0012
:102E50000248C01830BD0020FCE7C0463C080020F6
:102E600030B50022134801240300C825AD00AC464C
:102E70006344190003E00200083088420CD0037854
:102E80001C42F9D18379002B07D0002AF3D0957921
:102E90009D42F1D90200EFE710000378022293432C
:102EA0001A000F23134030221343037080238371D1
:102EB00030BDC0463C0800200378DB0704D4012362
:102EC0005B424380002383717047000010B5044BC0
:102ED0009847002801D0808810BD0248FCE7C04612
:102EE000292E0000FFFF0000F8B506000D001700B6
:102EF0001C000C4B9847002811D046808780012386
:102F00002B405B000178022291430B430F211940B3
:102F100030231943017080238371C471F8BD024BC3
:102F20009847EAE7292E0000612E000010B5034BF8
:102F30009847002801D0024B984710BD292E000069
:102F4000B92E00007047000010B50400C37B007C60
:102F5000000218431C4B984219D0E17A0907C90FA7
:102F60001A4B9847002812D00378DB070FD485232B
:102F7000E35C002B19D102780F3313403022134346
:102F8000037083790133DBB28371FF2B00D010BD56
:102F90000F498A1D0F4B9C46614413785B0801332F
:102FA000137008328A42F8D1F1E701780B090F3328
:102FB0000F2213401C010A4022430270002BE6D16D
:102FC000054B9847E3E7C046FFFF0000292E0000AD
:102FD0003C08002026030000B92E000010B50400B4
:102FE000C27B007C000210430F4B98420ED0E37A64
:102FF0005B0710D4E17A0907C90F0C4B9847E071C1
:10300000030A2372084B984209D010BD01235B428A
:10301000E3712372F9E7E071000A2072F5E72000FE
:10302000034B9847F1E7C046FFFF0000CD2E00009C
:10303000AD330000F0B5C64600B50700C27B047C86
:1030400024021443C57A2D07ED0FE9B22000274B67
:103050009847274B984210D000228923FA543B000E
:1030600089335A709A70DA7002328823FA54380021
:10307000204B984704BC9046F0BD7A7BBB7B1B027B
:10308000134398461C4B9847061E2BD01B4B984762
:1030900073780633737000228923F2543300893326
:1030A0005A709A70DA70FF2043461840F0731A0A7B
:1030B00032748123F35C8221715C090219438323FA
:1030C000F35C1B0419438423F35C1B060B430121AF
:1030D000197058709A70DC70240A1C715D71300090
:1030E000044B98473800064B9847C3E7CD2E0000A5
:1030F000FFFF0000693E0000152D0000DD2D0000DF
:10310000852D000010B5027B0023062A01D018008F
:1031100010BD83685979DA78187900021043024BA0
:1031200098470123F3E7C0462D2F000070B50D4BE3
:10313000002403E001340C33052C11D05D89002DEF
:10314000F8D01D888542F5D15D888D42F2D11D7978
:103150009542EFD160000419A4000248001900E074
:10316000002070BD5C0B002010B5104B5B89002B5C
:103170000BD00E4A01231800D18A002906D0013352
:103180000C32052BF7D100240EE00020074A430043
:103190001C18A4001419002121726172FA229200F5
:1031A00062810348034B9847200010BD5C0B002050
:1031B000980B002081450000F0B5C64600B582B0EE
:1031C0000190244D2E003C36002709E000236B813E
:1031D0002A88214B1B889A420AD00C35B5422ED042
:1031E00000956B89642BF1D9643B6B810127F4E76F
:1031F000009B5B7A984600242000184B9847041ED9
:10320000EBD02378402BF7D1E17B237C1B02009A83
:1032100052880B439A42EFD1E37A1B07009A127946
:10322000DB0F9A42E8D14346002B03D020000C4B21
:103230009847E1E7112120000A4B9847DCE7002F6F
:1032400003D102B004BC9046F0BD0198064B9847EC
:10325000F7E7C0465C0B0020940E0020992D00007B
:10326000693E0000ED3F00008145000070B505009B
:103270000E001E4B9847041E35D01D4B98476378AF
:103280000733637000228923E254230089335A7084
:103290009A70DA70E37A04221343E37201235B42EB
:1032A000E37323748233E35C8222A25C12021A432A
:1032B0008323E35C1B041A438423E35C1B06134350
:1032C00002221A702A885A70120A9A706A88A9789B
:1032D000D970120A1A712A795A719E712000054B11
:1032E0009847012070BD0020FCE7C046152D000066
:1032F000DD2D0000693E0000F8B505000F00160046
:103300001C4B9847041E33D01B4B984763780833F7
:10331000637000228923E254230089335A709A7023
:10332000DA7004328823E254EB88E3731B0A2374B7
:103330008123E35C7E32A25C12021A438323E35CA6
:103340001B041A438423E35C1B06134303221A70F5
:103350002A885A70120A9A706A88A978D970120A53
:103360001A712A795A719F71DE712000034B9847B8
:10337000F8BDC046152D0000DD2D0000693E00009F
:10338000074B00225A81DA825A84DA855A87054B24
:1033900064329A6000221A73034A1A617047C04669
:1033A0005C0B0020980B0020B931000010B5040020
:1033B000C27A1207D20FC07B217C09020143144B51
:1033C0001888144B9847002802D04023237010BD62
:1033D000114B9847002813D00D4B1B880380E17BCD
:1033E000237C1B020B434380E37A1B07DB0F037133
:1033F00001235B42C380FF21084B9847002804D17A
:1034000011212000064B9847E1E740232370DEE7B7
:10341000940E00202D310000693100006D32000053
:10342000ED3F0000F0B5C64600B50500037B002661
:10343000072B03D0300004BC9046F0BD846862794D
:10344000002A53D1E17823791B0219432E4B1B88A4
:103450006678A0780002304383423FD0012699422B
:103460004CD1A3796F7B5F433B0A9846E37821797F
:1034700009021943254B9847071E1AD0037A434582
:1034800030D26278A3781B0213433B80E278237921
:103490001B0213437B8063793B712B88FB8043467F
:1034A0003B72002E0BD141463800194B984701263C
:1034B000C0E7184B9847071EE3D10126BAE72A88D0
:1034C0006378A0780002184343460021124CA047BD
:1034D000FF2241463800114B9847ABE70126A9E788
:1034E0000126A7E70126A5E70126A3E76378A078D0
:1034F00000021843044B1B889842F5D01BB2002BE6
:10350000EEDB0026ADE7C046940E00202D31000012
:103510006D32000069310000E92E0000F932000030
:10352000F8B50500037B0020082B00D0F8BDAC687F
:103530006279E3782179090219436378A07800025F
:1035400018431D4B9847061E34D0A379427A0120B8
:103550009A42EBD2E0796F7B73726278A1780902AC
:10356000164B1B8811438B4219D047433F0A2A88C8
:103570006179E3782079000218433B00104DA84799
:10358000337AF2886178A078000208430021A847C6
:10359000A1793A0030000B4B98470120C6E7A37988
:1035A0002A886179E578207900022843044CA047F5
:1035B0000120BBE70120B9E72D310000940E002067
:1035C000E92E0000F932000010B5027B0023002A2A
:1035D0000ED083681B78012B0CD0002B05D0022B5A
:1035E0000CD0032B0ED0002302E0084B98470300B9
:1035F000180010BD064B98470300F9E7054B9847A4
:103600000300F5E7044B98470300F1E7AD3F0000E6
:1036100005310000253400002135000070B50B494C
:103620000B1D3131FF310024012502E006338B42AE
:1036300006D01A78002AF9D0013A1A702C00F5E762
:10364000002C00D170BD024B9847FBE7B00B002067
:103650008145000010B50A4A131D3132FF320021A6
:10366000197006339342FBD1064B64229A60002204
:103670001A73054A1A6105490020054B984710BD89
:10368000B00B0020DC0C00201D360000C935000006
:10369000F12A000010B5040003685A78882A00D087
:1036A00010BD1B78683A9343412BF9D103790F2B56
:1036B000F6D90A4B98470028F2D0202303702379CB
:1036C000437062798523C2540622A2560133C25444
:1036D000023022792168024B9847E1E7152D00005E
:1036E00001570000014B18707047C046AC0B00201A
:1036F000002902D124230370704722230370FBE7C3
:10370000F0B5CE46474680B587B00024794D7A4B58
:103710009846E1E024232370E27A130700D5DBE02A
:103720006079A3791B02034374498B4218D0E07B74
:10373000237C1B02034371498B4225D0617BA37B11
:103740001B026F4A12880B439A4200D1C4E020004A
:103750006C4B98476C4B002200210191A71C3DE067
:10376000E07B237C1B02034365490988994203D00F
:1037700062498B4200D0AFE0930702D5212323702A
:10378000AAE022232370A7E0D307D7D5A4E00098AE
:103790004100081840005C490818012199400A437B
:1037A000C27062E0584A9446009847003A185200A6
:1037B00062449170D1785B42DBB299400B000121E9
:1037C0000B43D37081464F447F00674415233B7100
:1037D0004BE0019301320633322A35D00092197939
:1037E0000029F6D0F97A8946397B090218884E46B5
:1037F00031438842EED1217B10005300944663444C
:103800005B00414AD3189B785B1ADBB2072BC9D8FF
:103810004200624452003C498A18D2781100194192
:10382000C907B4D5E179237A1B02354A12880B43C4
:103830009A4251D1E17A0907C90FE27B207C00024C
:103840001043324B984747E00198002844D0617BF1
:10385000A37B1B020B430380237B83700123C37074
:10386000143303712A482B4B9847E179237A1B02C2
:103870000B43224A934213D0214B1A88E07B237CCE
:103880001B0203439A421AD01C498B4217D0E0799D
:10389000237A1B02034393421ED1232323701BE090
:1038A000174B1A88E07B237C1B0203439A4206D005
:1038B000E17A4907E8D42000174B9847DCE7E37A20
:1038C0009B0702D52123237006E02223237003E007
:1038D00000212000114B98472000A847041E00D16A
:1038E000F4E02378203BDAB2042AF5D8930042466C
:1038F000D3589F46992D000044600000FFFF000050
:10390000940E0020452F0000B00B00202D2F00004A
:10391000DC0C002081450000253F0000293B000011
:1039200000226D4B1A70637C1B099C466A4613701B
:10393000137802339B00694A9958002900D1AFE0FF
:10394000A01C627BA37B1B02134302AA1380E27BB1
:10395000277C3F02174302AA5780627C1207120F8E
:1039600002AE32713200664656718122A25C9446E4
:103970008222A25C1202664616438322A25C1204D3
:1039800016438422A25C120632430492121A66780D
:10399000B21A02AE32738522A25C72738622A25CD6
:1039A000B273E07A032202404607F60F76013243F3
:1039B0000007C00F80011043494A944667447A4289
:1039C0005741BF003843A71C627A9446A27A12027C
:1039D000664632439B1A5A425341DB000343380088
:1039E000FF78027912023A433D48844662445042CD
:1039F000424112011A4302AB9A7118008847E27AD9
:103A0000D307DB171840E179237A1B020B433549B2
:103A10008B4247D06279A3791B021343314A934208
:103A20003BD02E4B1A882F4B9A4236D0002834D0E8
:103A30002D4B9847071E30D02C4B98477B7803338B
:103A40007B7000228923FA543B0089335A709A70A4
:103A5000DA70E37A02321A40FB7A02218B43134375
:103A6000FB72627BA37BFA733B748123FB5C822233
:103A7000BA5C12021A438323FB5C1B041A4384239F
:103A8000FB5C1B06134300221A70134A12789A70CB
:103A9000227B5A703800164B9847242323701BE76B
:103AA0000020ACE7E77B237C1B020C4909883B43E1
:103AB0009942AFD11307ADD40120ABE720000D4BE5
:103AC000984709E720000C4B984705E707B00CBC66
:103AD00090469946F0BDC046AC0B0020940E0020E5
:103AE0000100FFFFFFFF0000152D0000DD2D00008D
:103AF000693E000035300000852D00000023024A99
:103B00001370024A13607047F40C0020F00C002080
:103B100010B5010010220248024B984710BDC04664
:103B2000DC0E002001570000002906D1312303706C
:103B3000034A137801331370704730230370F7E79B
:103B4000F40C0020F0B5C64600B5254B1B689C461A
:103B500081236246D15C0133D35C1B02194383236A
:103B6000D35C1B040B4384226146895C090619431C
:103B70001C4B1B7898461C4B1E78371C102E00D906
:103B80001027FFB2002F17D0184B1D784144184A58
:103B90007C1EE4B20134141906E01078434013701F
:103BA00001310132A24207D00B78107843400B70EC
:103BB000002DF2D01370F3E74346DB19094A137066
:103BC000F61BF6B2084B1E70002E05D13423624658
:103BD000137004BC9046F0BD322362461370F8E7C0
:103BE000F00C0020F60C0020F70C0020F50C002053
:103BF000F80C002070B582B0554B1B78002B08D014
:103C0000544B1C68002C57D02378342B03D0322B14
:103C100047D002B070BD4D33E05C0133E35C1B0262
:103C200003438322A05C000403430132A05C00062E
:103C30001843494B1B78C018484B1D685A685540BB
:103C40009A685540DB685D400095454B1E78002E14
:103C500019D10422010001A8424B9847019B5D1B2A
:103C60006E426E41F6B23E4B1B78002B13D0394B9F
:103C700018683D4B98470022364B1A60344A137837
:103C8000013B1370C5E704226946364B98476378B9
:103C900004336370E7E72F4B18683100334B9847C4
:103CA000E9E70133237032492C48324B9847B0E79B
:103CB0006378043B63702BE02F4D2000A847041E5F
:103CC000A7D02378303B012BF7D8224B1C60234927
:103CD000237B0B60E07B237C1B0203431B04607C83
:103CE000000903434B60607BA37B1B0203431B045F
:103CF000607C0007000F03438B606079A3791B028F
:103D000003431B04E27A1343CB6020783128CFD0E1
:103D10008123E15C0133E25C120211430133E25C76
:103D2000120411430133E35C1B060B43A21C9B1AD4
:103D30006278D31A114A13700022074B1A700300DD
:103D4000303B59425941064A11703223237060E7D3
:103D5000F40C0020F00C0020F60C0020F80C0020E1
:103D6000F50C002001570000F73F0000F13600007D
:103D7000DC0E00204D440000992D0000F70C0020BF
:103D8000F0B583B0019000240020114D86268727CE
:103D9000A847002813D00378112BF9D1825DC35DA9
:103DA0001B021343013B9BB28355190A0200863262
:103DB00051700124002BEBD113330370E8E7002C82
:103DC00001D103B0F0BD0198024B9847F9E7C04616
:103DD000992D000081450000F0B583B001900024CA
:103DE0000020124D86268727A847002816D0037882
:103DF000162BF9D1825DC35D1B021343013B9BB2BD
:103E00008355190A0200863251700124002BEBD130
:103E10001733037010226E33C254E5E7002C01D132
:103E200003B0F0BD0198024B9847F9E7992D0000C7
:103E3000814500000022074B1A60074B3221996030
:103E40001A7306491961064B0A2199601A73054ACB
:103E50001A617047300D0020080D0020D93D000088
:103E60001C0D0020813D000010B504008823C35CB8
:103E70009A072DD51222027000218522A154DA075B
:103E80002FD5012252426271A27105221A422ED010
:103E9000E27B237CE27123721E490B7863724B78BC
:103EA000A3724B790133DBB24B712371E179237A31
:103EB0001B020B43184A93421DD06123A370D93BC8
:103EC000E3700022FE33E25486340023637010BD99
:103ED000C27A920702D510220270CDE71222027038
:103EE000CAE70C4A91786171D278A271CDE72000BF
:103EF0000A4B9847D0E74123A370B93BE370084BC6
:103F000098470723184001307F33E054863400235C
:103F10006370DCE7940E0020FFFF0000DD2F00003F
:103F20008157000070B505001C4B9847041E33D024
:103F3000122303706B78437000228523C254184B00
:103F400098470723184001307F33E054000C2300CA
:103F50008633587000228923E254230089335A7033
:103F60009A70DA70A01C6A78A91C0E4B98474123FE
:103F7000A370B93BE3707733E37123726A79AB794D
:103F80006271A371084A137863725378A3725379EC
:103F90000133DBB25371237170BDC046152D000093
:103FA0008157000001570000940E002070B5027B7D
:103FB0000023032A01D0180070BD856800200A4C38
:103FC000A04700280DD00378162BF9D1027B6B781F
:103FD0009A42F5D117230370AA787133C254873BF4
:103FE000E9E70023E7E7C046992D00001723037097
:103FF0006E33C15470471223037070470C4B1B681B
:10400000012805D0002804D002280FD0012000E0AC
:10401000202085229854703A1A700022044B1A60AE
:10402000044958328B5A013B8B5270472120F0E7EC
:10403000300D0020940E002070B50024374D384E0E
:1040400003E001212000374B98472000A847041EB9
:1040500063D02378103BDAB2072AF6D89300F358DE
:104060009F468623E25C0133E35C1B02134302D1CB
:1040700013232370E9E7112323702B482B4B984718
:10408000E3E72B4B1B68002BDFD1294B1C6014236B
:104090002370601C274B9847274958228B5A0133BD
:1040A0008B52D2E78523E35C002B1AD1617BA37B83
:1040B0001B02214A12880B439A4202D01723237015
:1040C000C3E7E37ADB07F9D5162323701522703393
:1040D000E2540022230086335A701848134B984745
:1040E000B3E717232370B0E72000154B98478923C7
:1040F000E35C8A22A25C12021A438B23E35C1B045A
:104100001A438C23E35C1B06134302D0200098471C
:104110009BE720000B4B984797E770BD992D000057
:1041200058600000293B00001C0D00208145000064
:10413000300D002089420000940E0020080D002060
:10414000492F0000852D0000F8B504000B4F0C4EE0
:104150001F2503210220B8470120B0472840082826
:10416000F7D1064F064E1F2521000220B847012037
:10417000B04728408442F7D1F8BDC046D54B000077
:10418000D94A000010B50820064B98470F20064B6F
:104190009847064B1B78002B00D110BD1620014B11
:1041A0009847FAE749410000D94A0000B40D0020C1
:1041B00070B50E4B98470E4B984700220D4B1A7066
:1041C00001320D4B1A700D4E0D4D1F240821022097
:1041D000B0470120A84720400828F7D12E210438F5
:1041E000064CA047A0210C20A04770BD8D490000BF
:1041F000A94A0000B40D0020B50D0020D54B0000E9
:10420000D94A000010B5024B1870024B984710BDF8
:10421000B40D00208541000010B504000820054BB6
:1042200098471F23010099432143C9B20820024B3C
:10423000984710BDD94A0000D54B000030B583B077
:104240006B469D1DD880C1B22220034CA0476978DF
:104250002320A04703B030BDD54B000070B582B01D
:104260006B469E1DD880C4B221002020054DA84772
:10427000767831002120A847A419E1B22D20A84763
:1042800002B070BDD54B000010B5040019200C4BD6
:1042900098470F200B4B984721788B1C23700131D6
:1042A000C9B22000084B98470322084B1A70084BEC
:1042B000802252039A61C046C0465A6110BDC04672
:1042C00049410000D94A0000054E0000B50D00200C
:1042D00000440041F0B5C64600B506200D4B984796
:1042E000002400250C4F0D4E032398460120B847AB
:1042F0000620B047400943461840A0400543ADB2F0
:104300000234102CF2D1064B9847280004BC90468A
:10431000F0BDC0464941000055010000D94A0000E7
:104320008541000010B50400080000220021054B63
:10433000984700212000044B98472000034B9847E2
:1043400010BDC04625480000B94700005D49000087
:10435000F0B585B0264B1B78022B0AD00F20254BD9
:104360009847030705D5224B1B78012B03D0032B5D
:1043700026D005B0F0BD07201E4B984706006B46BF
:10438000DD1D012128001C4FB84729780231C9B230
:104390001A4C2000B84702A8631C02932B789A1E7F
:1043A0000271E418637843715B3E8671144B984741
:1043B000104D1F240120A84720401628FAD1D8E725
:1043C00002200C4B98474009C4B2002C05D0032CA6
:1043D0000CD0053C631E9C4102340A4B98470122D5
:1043E000034B1A702000084B9847C2E70124F4E7FA
:1043F000B50D0020D94A0000D54C0000340D002036
:104400009536000085410000FD3F000010B5044BCB
:104410009847044B9847044B9847044B984710BD66
:10442000D9440000B5470000B14100006D2A0000EA
:1044300010B5034B9847034B9847034B984710BD63
:1044400051430000212B0000A145000010B5024B94
:104450009847024B984710BD25430000453B00009C
:1044600030B5144B1D68002D1CD0826869688A42E3
:1044700009D32C00521A2368002B08D059689142A6
:1044800003D81C00F6E72B000024891A596042600B
:10449000002C03D023680360206030BD0560054B0D
:1044A0001860FAE70023036083684360014B1860DB
:1044B000F3E7C046B80D002010B5044A1378013365
:1044C000DBB213700248034B984710BDF00E00207A
:1044D000102700005154000010B50024064B1C703A
:1044E0000648074B9847074B98470748074B98479C
:1044F000074B1C6010BDC046F00E0020B944000000
:1045000041550000BD540000102700005154000028
:10451000B80D00200E4B1A68002A14D0824213D026
:104520001368002B0FD0984201D01A00F8E7002A38
:104530000AD0036813600368002B04D042685968EE
:104540008C4662445A607047014B02681A60F2E779
:10455000B80D0020094B1B68002B0AD083420AD0FB
:104560001B68002B03D09842FAD1012000E0002004
:1045700070470020FCE70120FAE7C046B80D002094
:1045800010B50400044B9847002800D010BD20004F
:10459000024B9847FAE7C0465545000061440000C9
:1045A000F0B583B01D4B1B78002B35D0EFF3108294
:1045B00053425341019372B6BFF35F8F0021184BF2
:1045C00019700198154A1378DBB21170002805D0D4
:1045D0000131134A1170BFF35F8F62B69D00ED1871
:1045E0006D00104E370005E020000F4B98470DE09E
:1045F000200098473468002C0ED063689D4209D390
:10460000ED1A23683B60237B012BEDD02369002B3F
:10461000EED1EFE75D1B656003B0F0BDF00E00204A
:1046200008000020B80D00206144000010B5014BC7
:10463000984710BD2555000010B5014B984710BD97
:10464000DD54000010B50248024B984780B210BDFF
:10465000280F0020A91F0000034B10211A681173B6
:104660005A7E8A435A767047280F002010B50A4CAC
:1046700020680A4B98470A4B1B5C1F221A400123F3
:104680009340084A1360637E1022134363762368C5
:1046900010225A7310BDC046280F0020351D00009F
:1046A0007860000000E100E010B50200002102483F
:1046B000024B984710BDC046280F0020D51F0000B0
:1046C000F8B5CE46474680B52D4A00231370937047
:1046D000002193809171138151709172D172117385
:1046E0009173517311745361936111771362536223
:1046F00013859385013B5385224C23492000234B8E
:104700009847002222492000224DA8470222224930
:104710002000A8472068214B99469847204B98468F
:104720001B5C1F26334001252A009A401D4F3A602A
:10473000637E01221343637623685D731800C847C4
:1047400043461B5C1E40B5403D60637E1022134310
:104750006376226810235373D37B5BB2002BFBDBA1
:10476000138802210B43138000200F4B98470F49F9
:104770000F4B9847C0B20CBC90469946F8BDC04656
:10478000F40E0020280F0020002C00426D1D0000B8
:10479000394600006D1C00002D460000351D00004C
:1047A0007860000000E100E0FD19000040420F00C9
:1047B0004D5500007047000070B503000D00144C0B
:1047C000601C10221900134B9847647C124B1B7815
:1047D000002B15D012220E498320104B984700223F
:1047E0000D4B1A70002D05D0102209490131280007
:1047F000084B9847064B5C741820094B984770BDCE
:104800001122034901318420044B9847EAE7C0464E
:10481000BC0D002001570000F00D002015520000D3
:1048200055010000F0B5C64600B584B005000E0085
:104830001400002817D000223E4B1A7002323E4B63
:104840001A700E3201003D483D4B984698473D4F47
:1048500010233B70781C10222900C0471122390018
:104860008320394B9847002C03D0012C2FD00020F7
:104870001BE0314B1B78012B1BD02F4B1C70002EE3
:1048800002D00020022E10D1360170231E40E40019
:10489000683B1C4034432B4B1C70802676423443CB
:1048A0005C740122294B1A70012004B004BC9046AC
:1048B000F0BD244D0F332B70681C10221F49204B74
:1048C00098471122290083201F4B9847D5E71A4BA0
:1048D0001B78012BD1D010221A4B1A70154B1B7864
:1048E000002B0ED0174D681C10221949144B984705
:1048F000112229008320144B98470E4B01221A7075
:10490000BBE7104D2B7080336B740F3A0F4B1A704E
:10491000002168460F4B984710232B700122290075
:104920008320094B98471022094984200A4B984755
:10493000D8E7C046CE0D002009000020E00D002081
:1049400001570000BC0D0020214F0000F00D002099
:10495000D00D0020B94700008D50000010B50100B7
:1049600010228420014B984710BDC0468D50000096
:1049700010B50122034B1A61034B1B68002B00D0BA
:10498000984710BD00180040F40D002030B585B0E8
:10499000344A0023537093703F211170324C2170C0
:1049A0006370A370012269464A708B700A703F20C1
:1049B0002E4B98472278D1090023002904D15309AE
:1049C000DB012B498C4663441F211140012210005A
:1049D00088409861274C227000236360A360237491
:1049E0006374A274E27423752332A3542000183038
:1049F000183A0021204B984780235B02E3601F4B4D
:104A0000A3611F4BA36201235B42E3621D4B23633F
:104A10001D4B63631D4D22001D4928001D4B984707
:104A20002A68D369002BFCD1136802252B4313603D
:104A300001AC2000184B98472023019380239B034F
:104A400063602572012363720022A272E372210067
:104A50000020124B9847002200211148114B984723
:104A600005B030BD480F00204C0F00209504000019
:104A700000440041500F002013570000404B4C00F1
:104A80000500530005003E0005005200880F00207D
:104A90000018004255090000090400001D04000030
:104AA00071490000C502000070B5084C80252D0238
:104AB000A56180225203064B5A61A5204000054E95
:104AC000B04765610A20B047A56170BD80440041D0
:104AD000004400415501000070B582B00500EFF3BD
:104AE00010835A425341019372B6BFF35F8F002285
:104AF000334B1A70019C334E013233493000334B33
:104B00009847336801211A7E0A42FCD01A7ED207E8
:104B100002D5802215439D6202211A7E0A42FCD0F2
:104B200004211A7E0A42FCD01A7E52070CD55A8BF9
:104B3000520701D504225A83224A9279012A34D09D
:104B40009A6AD2B222490A8001211A7E0A42FCD016
:104B50001A7ED20701D500229A6202211A7E0A42E9
:104B6000FCD004211A7E0A42FCD01A7E002552078E
:104B70000AD55A8B520701D504225A83114A9279D9
:104B8000012A18D09D6AEDB200220F490D480F4B43
:104B90009847FF23234205D00122094B1A70BFF327
:104BA0005F8F62B6E8B202B070BD9A6AD205D20DCC
:104BB00007490A80C8E79D6AED05ED0DE4E7C046A8
:104BC00008000020880F00204C0F0020190C000066
:104BD000440F0020F0B583B006000C00EFF3108303
:104BE0005A425341019372B6BFF35F8F0022344B98
:104BF0001A70019D334F013233493800334B9847C7
:104C00003B6801211A7E0A42FCD01A7ED20702D5E7
:104C1000C02216439E6202211A7E0A42FCD0042161
:104C20001A7E0A42FCD01A7E52070CD55A8B5207C4
:104C300001D504225A83234A9279012A33D09A6AF1
:104C4000D2B223490A8001211A7E0A42FCD01A7E80
:104C5000D20700D59C6202211A7E0A42FCD00421B0
:104C60001A7E0A42FCD01A7E52070CD55A8B520784
:104C700001D504225A83134A9279012A19D09B6ADA
:104C8000DBB2134A138000220F490E480F4B98479E
:104C9000FF232B4205D00122094B1A70BFF35F8F0F
:104CA00062B603B0F0BD9A6AD205D20D08490A80F7
:104CB000C9E79B6ADB05DB0D054A1380E3E7C046C5
:104CC00008000020880F00204C0F0020190C000065
:104CD000440F0020F0B5D6464F464646C0B582B0D8
:104CE00005000C00EFF310835A425341019372B652
:104CF000BFF35F8F00223E4B1A70019B98463D4FD9
:104D000001323D4938003D4B98473B6801211A7EEE
:104D10000A42FCD01A7ED20701D520229A620221D3
:104D20001A7E0A42FCD004211A7E0A42FCD01A7E66
:104D300052070CD55A8B520701D504225A832D4AAB
:104D40009279012A13D09B6ADBB22D4A1380631E2D
:104D5000DBB2002C36D001339C46AC442027254ED4
:104D6000012000239A4602240421B1460FE09B6AE9
:104D7000DB05DB0D224A1380E9E74A469279012AD6
:104D80001CD09F6AFFB22F70013565451AD0336879
:104D90001A7E0242FCD01A7E024201D052469A622A
:104DA0001A7E2242FCD01A7E0A42FCD01A7E0A42A7
:104DB000E9D05A8B0A42E0D05983DEE79F6AFF05AB
:104DC000FF0DE0E700220C490A480C4B9847FF23EF
:104DD0004246134205D00122054B1A70BFF35F8F84
:104DE00062B602B01CBC90469946A246F0BDC046D1
:104DF00008000020880F00204C0F0020190C000034
:104E0000440F0020F0B5C64600B582B004000D0086
:104E1000EFF310835A425341019372B6BFF35F8F91
:104E200000223A4B1A70019B9846394F013239499A
:104E30003800394B98473B6801211A7E0A42FCD062
:104E40001A7ED20701D560229A6202211A7E0A4296
:104E5000FCD004211A7E0A42FCD01A7E52070CD5DF
:104E60005A8B520701D504225A83294A9279012A82
:104E70000BD09A6AD2B229490A80254A927994467F
:104E800021000127022004240DE09A6AD205D20DE8
:104E900022490A80F1E76246012A1ED09A6AD2B2FC
:104EA0001E4E32800131013DEDB2FF2D1BD01A7E26
:104EB0003A42FCD01A7E3A4201D00A789A621A7EAF
:104EC0000242FCD01A7E2242FCD01A7E2242E9D055
:104ED0005A8B2242DFD05C83DDE79A6AD205D20D7D
:104EE0000E4E3280DEE700220A4909480A4B9847F5
:104EF000FF234246134205D00122044B1A70BFF330
:104F00005F8F62B602B004BC9046F0BD080000207E
:104F1000880F00204C0F0020190C0000440F0020C7
:104F2000F0B5C64600B582B006000D001400EFF3E0
:104F300010835A425341019372B6BFF35F8F002230
:104F40004D4B1A70019B98464C4F01324C4938002A
:104F50004C4B98473B6801211A7E0A42FCD01A7ECE
:104F6000D20701D540229A6202211A7E0A42FCD061
:104F700004211A7E0A42FCD01A7E52070CD55A8BA5
:104F8000520701D504225A833C4A9279012A2BD038
:104F90009A6AD2B23C490A8001211A7E0A42FCD0A8
:104FA0001A7ED20700D59E6202211A7E0A42FCD0E8
:104FB00004211A7E0A42FCD01A7E52070CD55A8B65
:104FC000520701D504225A832C4A9279012A11D022
:104FD0009A6AD2B22C490A80284A927994462800CB
:104FE00001260225042113E09A6AD205D20D264932
:104FF0000A80D1E79A6AD205D20D23490A80EBE7ED
:105000006246012A1ED09A6AD2B21F4F3A800130FE
:10501000013CE4B2FF2C1BD01A7E3242FCD01A7E37
:10502000324201D002789A621A7E2A42FCD01A7E5D
:105030000A42FCD01A7E0A42E9D05A8B0A42DFD0DB
:105040005983DDE79A6AD205D20D0F4F3A80DEE729
:1050500000220B4909480B4B9847FF234246134255
:1050600005D00122044B1A70BFF35F8F62B602B005
:1050700004BC9046F0BDC04608000020880F002008
:105080004C0F0020190C0000440F0020F0B5D6464C
:105090004F464646C0B582B004000D0017000120FF
:1050A000564B9847EFF310835A425341019372B61F
:1050B000BFF35F8F0022524B1A70019B9846514EEE
:1050C000013251493000514B9847336801211A7E13
:1050D0000A42FCD01A7ED20701D500229A62022130
:1050E0001A7E0A42FCD004211A7E0A42FCD01A7EA3
:1050F00052070CD55A8B520701D504225A83414AD4
:105100009279012A33D09A6AD2B241490A800121A8
:105110001A7E0A42FCD01A7ED20700D59C62022178
:105120001A7E0A42FCD004211A7E0A42FCD01A7E62
:1051300052070CD55A8B520701D504225A83314AA3
:105140009279012A19D09B6ADBB2314A13807B1E07
:10515000DBB2002F3CD001339C46AC440027294EE3
:10516000012000239A4602240421B14615E09A6AE0
:10517000D205D20D26490A80C9E79B6ADB05DB0D03
:10518000234A1380E3E74A469279012A1CD09F6A9A
:10519000FFB22F70013565451AD033681A7E02427E
:1051A000FCD01A7E024201D052469A621A7E2242F6
:1051B000FCD01A7E0A42FCD01A7E0A42E9D05A8BF1
:1051C0000A42E0D05983DEE79F6AFF05FF0DE0E762
:1051D00000220D490B480D4B9847FF2342461342CE
:1051E00005D00122064B1A70BFF35F8F62B602B082
:1051F0001CBC90469946A246F0BDC0465501000031
:1052000008000020880F00204C0F0020190C00001F
:10521000440F0020F0B5D6464F464646C0B50600BE
:105220008A4614000120764B984700210020754BD8
:105230009847754F012275493800754B98473B6870
:1052400001211A7E0A42FCD01A7ED20701D54022E3
:105250009A6202211A7E0A42FCD004211A7E0A4276
:10526000FCD01A7E52070CD55A8B520701D5042266
:105270005A83654A9279012A55D09A6AD2B2654911
:105280000A8001211A7E0A42FCD01A7ED20700D57C
:105290009E6202211A7E0A42FCD004211A7E0A4232
:1052A000FCD01A7E52070CD55A8B520701D5042226
:1052B0005A83554A9279012A3BD09A6AD2B255490B
:1052C0000A8001211A7E0A42FCD01A7ED20702D53A
:1052D000524612789A6202211A7E0A42FCD00421B8
:1052E0001A7E0A42FCD01A7E52070CD55A8B5207FE
:1052F00001D504225A83444A9279012A1FD09B6A1D
:10530000DBB2444A13800027002C43D05646013CB0
:10531000E4B20134A244D04600273B4D01200224D0
:105320000421A9461BE09A6AD205D20D39490A80A8
:10533000A7E79A6AD205D20D36490A80C1E79B6A6F
:10534000DB05DB0D334A1380DDE74A469279012AFB
:105350001CD09F6AFFB237700136B0451AD02B6857
:105360001A7E0242FCD01A7E024201D072789A6202
:105370001A7E2242FCD01A7E0A42FCD01A7E0A42D1
:10538000E9D05A8B0A42E0D05983DEE79F6AFF05D5
:10539000FF0DE0E71C4B1B6801211A7E0A42FCD07E
:1053A0001A7ED20701D500229A6202211A7E0A4291
:1053B000FCD004211A7E0A42FCD01A7E52070AD57C
:1053C0005A8B520701D504225A830F4A9279012A37
:1053D00011D09F6AFFB253461F7000220B490A4842
:1053E0000B4B9847002100200B4B98471CBC904664
:1053F0009946A246F0BD9F6AFF05FF0DEBE7C04648
:105400005501000011030000880F00204C0F002000
:10541000190C0000440F0020F102000010B5074BEA
:105420009847074B9847074B98470122064B1A703D
:10543000BFF35F8F62B6054CA047FDE7411C00003B
:1054400015010000E928000008000020FD280000E8
:1054500010B5041C134B9847134B1A7862438118FC
:10546000124B59605968090C59605B68002B07D0D2
:105470000E4B59680132801818810D4B984704E093
:1054800082180A4B1A810B4B9847084B1B89632BD8
:1054900002D86433054A1381044B1889064B984798
:1054A00010BDC04645460000940F0020F80D0020B6
:1054B000594600006D460000A946000008B50022CC
:1054C000034B1A70034B9847034B187008BDC04636
:1054D000F80D0020C1460000940F002008B50E4BC7
:1054E0005B68002B07D00C4A5368013B5360002BCC
:1054F00001D10A4B9847084A13780133DBB2137085
:10550000074A12789A4206D8034B00221A70DB68C9
:10551000002B00D0984708BDF80D00206D46000014
:10552000940F002008B5044B9847044B1B69002BCF
:1055300000D0984708BDC04659460000F80D00202D
:10554000014B18617047C046F80D00200022430847
:105550008B4274D303098B425FD3030A8B4244D33B
:10556000030B8B4228D3030C8B420DD3FF2209027D
:1055700012BA030C8B4202D31212090265D0030B3C
:105580008B4219D300E0090AC30B8B4201D3CB0332
:10559000C01A5241830B8B4201D38B03C01A524174
:1055A000430B8B4201D34B03C01A5241030B8B4276
:1055B00001D30B03C01A5241C30A8B4201D3CB0261
:1055C000C01A5241830A8B4201D38B02C01A524146
:1055D000430A8B4201D34B02C01A5241030A8B4249
:1055E00001D30B02C01A5241CDD2C3098B4201D361
:1055F000CB01C01A524183098B4201D38B01C01ADF
:10560000524143098B4201D34B01C01A5241030955
:105610008B4201D30B01C01A5241C3088B4201D304
:10562000CB00C01A524183088B4201D38B00C01AB1
:10563000524143088B4201D34B00C01A5241411AD8
:1056400000D20146524110467047FFE701B50020E5
:1056500000F006F802BDC0460029F7D076E7704793
:105660007047C046F0B5CE46474615042D0C2E00B7
:1056700080B50704140C3F0C9946030C7E435D4330
:10568000674363437F19340CE4199C46A54203D950
:1056900080235B029846C4444B465143434336043F
:1056A000360C250C24046544A41959184919200006
:1056B0000CBC90469946F0BD70B500260C4D0D4CC3
:1056C000641BA410A64209D1002600F009FD0A4D72
:1056D0000A4C641BA410A64205D170BDB300EB5860
:1056E00098470136EEE7B300EB5898470136F2E7EA
:1056F000EC600000EC600000EC600000F060000076
:10570000002310B59A4200D110BDCC5CC4540133C3
:10571000F8E703008218934200D1704719700133F3
:10572000F9E70000104B70B51C680500A36B002B57
:1057300015D1182000F0CCFA0C4BA06303800C4B61
:10574000012243800B4B83800B4BC3800B4B0381A7
:1057500005234381063383810023026143610022D4
:10576000A36B1D615A6170BD0C0000200E33000058
:10577000CDABFFFF341200006DE6FFFFECDEFFFF54
:10578000154B10B51C68A36B002B15D1182000F029
:105790009FFA124BA0630380114B01224380114BEF
:1057A0008380114BC380114B038105234381063352
:1057B0008381002302614361A46B0D4A2069616902
:1057C0000C4BFFF74FFF0122002380185941206145
:1057D00061614800400810BD0C0000200E3300003D
:1057E000CDABFFFF341200006DE6FFFFECDEFFFFE4
:1057F0002D7F954C2DF451584A424A41802310B5D3
:105800005200DB0000F002F810BD0000F0B51D00F2
:105810004F4B85B01E6804000F000092002E05D08B
:10582000B369002B02D1300000F094F9494B9C423F
:1058300050D17468009B022B05D0012B00D984E065
:10584000002D00DA81E02100300000F015F9616BD5
:10585000002908D023004433994202D0300000F0E0
:1058600041FA002363630023A3616360A3891B06DD
:1058700003D52169300000F035FAA389364A134078
:10588000A381009B022B5AD003AB02AA2100300057
:1058900000F0F6F9A3891843A081002D24D1029DC0
:1058A000280000F015FA0195071E42D1029B0193D2
:1058B000AB4239D1012040420223A2891343A38184
:1058C0000023A36023004733236023610123636126
:1058D00005B0F0BD214B9C4201D1B468AAE7204B32
:1058E0009C42A7D1F468A5E7002FD9D0B369002B5B
:1058F00002D1300000F02EF9009B012B03D1A389C7
:10590000009A1A43A2810820A38927602761656154
:10591000184018D0012018400023984211D06D4241
:10592000A360A5611800D3E7019800F0D1F9071E24
:10593000C0D08023A289019D1343A381D6E7002014
:10594000BAE7A560C4E7A060C2E701204042BFE714
:105950000C000020A06000005CF3FFFFC0600000AE
:1059600080600000F7B58A8905000C00130760D439
:105970004B68002B04DC0B6C002B01DC0020FEBD0F
:10598000E76A002FFAD000232E682B6080235B018A
:105990001A4034D0606DA3895B0706D56368C01ACE
:1059A000636B002B01D0236CC01A0200216A002314
:1059B0002800E76AB847A189431C06D12B681D2B34
:1059C00031D82C4ADA40D3072DD5002363602369F0
:1059D0002360CB0405D5431C02D12B68002B00D1DA
:1059E0006065616B2E600029C8D023004433994262
:1059F00002D0280000F076F900206063BFE70123A1
:105A0000216A2800B847431CC5D12B68002BC2D09F
:105A10001D2B01D0162B01D12E60AFE74023A289A8
:105A20001343A381ABE740230B430120A3814042F2
:105A3000A5E70F69002FA1D00B680F60DB1B019356
:105A40000023920700D14B69A360019B002B00DC6F
:105A500094E7019B3A00216A2800A66AB047002813
:105A600003DC4023A2891343DFE7019B3F181B1A85
:105A70000193EAE7010040200B6970B505000C00B6
:105A8000002B01D1002070BD002804D08369002BB9
:105A900001D100F05FF80B4B9C4209D16C680C22DD
:105AA000A35E002BEED021002800FFF75BFFEAE7A2
:105AB000054B9C4201D1AC68F1E7044B9C42EED10E
:105AC000EC68ECE7A0600000C060000080600000AF
:105AD00010B5024900F0B2F810BDC046795A000076
